{
  "abi": [
    {
      "anonymous": false,
      "inputs": [
        {
          "indexed": false,
          "internalType": "address",
          "name": "renter",
          "type": "address"
        },
        {
          "indexed": false,
          "internalType": "uint32",
          "name": "id",
          "type": "uint32"
        },
        {
          "indexed": false,
          "internalType": "uint256",
          "name": "start",
          "type": "uint256"
        },
        {
          "indexed": false,
          "internalType": "uint256",
          "name": "end",
          "type": "uint256"
        }
      ],
      "name": "LogApplicationApproved",
      "type": "event"
    },
    {
      "anonymous": false,
      "inputs": [
        {
          "indexed": false,
          "internalType": "uint256",
          "name": "listingId",
          "type": "uint256"
        },
        {
          "indexed": false,
          "internalType": "uint256",
          "name": "start",
          "type": "uint256"
        },
        {
          "indexed": false,
          "internalType": "uint256",
          "name": "end",
          "type": "uint256"
        }
      ],
      "name": "LogApplicationSent",
      "type": "event"
    },
    {
      "anonymous": false,
      "inputs": [
        {
          "indexed": false,
          "internalType": "address",
          "name": "owner",
          "type": "address"
        },
        {
          "indexed": false,
          "internalType": "string",
          "name": "propertyName",
          "type": "string"
        },
        {
          "indexed": false,
          "internalType": "string",
          "name": "propertyDescription",
          "type": "string"
        },
        {
          "indexed": false,
          "internalType": "string",
          "name": "propertyAddress",
          "type": "string"
        },
        {
          "indexed": false,
          "internalType": "string[]",
          "name": "images",
          "type": "string[]"
        },
        {
          "indexed": false,
          "internalType": "uint128",
          "name": "price",
          "type": "uint128"
        }
      ],
      "name": "LogListingAdded",
      "type": "event"
    },
    {
      "inputs": [
        {
          "components": [
            {
              "internalType": "string",
              "name": "name",
              "type": "string"
            },
            {
              "internalType": "string",
              "name": "description",
              "type": "string"
            },
            {
              "internalType": "string",
              "name": "location",
              "type": "string"
            }
          ],
          "internalType": "struct RentingContract.PropertyInfo",
          "name": "_propertyInfo",
          "type": "tuple"
        },
        {
          "internalType": "string[]",
          "name": "_images",
          "type": "string[]"
        },
        {
          "internalType": "uint128",
          "name": "_price",
          "type": "uint128"
        }
      ],
      "name": "addListing",
      "outputs": [
        {
          "internalType": "uint256",
          "name": "id",
          "type": "uint256"
        }
      ],
      "stateMutability": "nonpayable",
      "type": "function"
    },
    {
      "inputs": [
        {
          "internalType": "uint256",
          "name": "_id",
          "type": "uint256"
        },
        {
          "internalType": "uint256",
          "name": "_start",
          "type": "uint256"
        },
        {
          "internalType": "uint256",
          "name": "_end",
          "type": "uint256"
        }
      ],
      "name": "applyForListing",
      "outputs": [],
      "stateMutability": "nonpayable",
      "type": "function"
    },
    {
      "inputs": [
        {
          "internalType": "uint32",
          "name": "_id",
          "type": "uint32"
        },
        {
          "internalType": "uint32",
          "name": "_applicationId",
          "type": "uint32"
        }
      ],
      "name": "approveApplication",
      "outputs": [],
      "stateMutability": "nonpayable",
      "type": "function"
    },
    {
      "inputs": [
        {
          "internalType": "uint256",
          "name": "_id",
          "type": "uint256"
        }
      ],
      "name": "getApplicationsForListing",
      "outputs": [
        {
          "components": [
            {
              "internalType": "address",
              "name": "applicant",
              "type": "address"
            },
            {
              "internalType": "uint256",
              "name": "start",
              "type": "uint256"
            },
            {
              "internalType": "uint256",
              "name": "end",
              "type": "uint256"
            }
          ],
          "internalType": "struct RentingContract.Application[]",
          "name": "",
          "type": "tuple[]"
        }
      ],
      "stateMutability": "view",
      "type": "function"
    },
    {
      "inputs": [
        {
          "internalType": "uint256",
          "name": "_id",
          "type": "uint256"
        }
      ],
      "name": "getListingById",
      "outputs": [
        {
          "components": [
            {
              "internalType": "address",
              "name": "owner",
              "type": "address"
            },
            {
              "components": [
                {
                  "internalType": "string",
                  "name": "name",
                  "type": "string"
                },
                {
                  "internalType": "string",
                  "name": "description",
                  "type": "string"
                },
                {
                  "internalType": "string",
                  "name": "location",
                  "type": "string"
                }
              ],
              "internalType": "struct RentingContract.PropertyInfo",
              "name": "propertyInfo",
              "type": "tuple"
            },
            {
              "internalType": "string[]",
              "name": "images",
              "type": "string[]"
            },
            {
              "internalType": "uint128",
              "name": "price",
              "type": "uint128"
            },
            {
              "internalType": "address[]",
              "name": "renters",
              "type": "address[]"
            },
            {
              "internalType": "uint256[2][]",
              "name": "rentDates",
              "type": "uint256[2][]"
            },
            {
              "internalType": "uint256[3]",
              "name": "rentedDates",
              "type": "uint256[3]"
            },
            {
              "components": [
                {
                  "internalType": "address",
                  "name": "applicant",
                  "type": "address"
                },
                {
                  "internalType": "uint256",
                  "name": "start",
                  "type": "uint256"
                },
                {
                  "internalType": "uint256",
                  "name": "end",
                  "type": "uint256"
                }
              ],
              "internalType": "struct RentingContract.Application[]",
              "name": "pendingApplications",
              "type": "tuple[]"
            }
          ],
          "internalType": "struct RentingContract.Listing",
          "name": "",
          "type": "tuple"
        }
      ],
      "stateMutability": "view",
      "type": "function"
    },
    {
      "inputs": [],
      "name": "getListings",
      "outputs": [
        {
          "components": [
            {
              "internalType": "address",
              "name": "owner",
              "type": "address"
            },
            {
              "components": [
                {
                  "internalType": "string",
                  "name": "name",
                  "type": "string"
                },
                {
                  "internalType": "string",
                  "name": "description",
                  "type": "string"
                },
                {
                  "internalType": "string",
                  "name": "location",
                  "type": "string"
                }
              ],
              "internalType": "struct RentingContract.PropertyInfo",
              "name": "propertyInfo",
              "type": "tuple"
            },
            {
              "internalType": "string[]",
              "name": "images",
              "type": "string[]"
            },
            {
              "internalType": "uint128",
              "name": "price",
              "type": "uint128"
            },
            {
              "internalType": "address[]",
              "name": "renters",
              "type": "address[]"
            },
            {
              "internalType": "uint256[2][]",
              "name": "rentDates",
              "type": "uint256[2][]"
            },
            {
              "internalType": "uint256[3]",
              "name": "rentedDates",
              "type": "uint256[3]"
            },
            {
              "components": [
                {
                  "internalType": "address",
                  "name": "applicant",
                  "type": "address"
                },
                {
                  "internalType": "uint256",
                  "name": "start",
                  "type": "uint256"
                },
                {
                  "internalType": "uint256",
                  "name": "end",
                  "type": "uint256"
                }
              ],
              "internalType": "struct RentingContract.Application[]",
              "name": "pendingApplications",
              "type": "tuple[]"
            }
          ],
          "internalType": "struct RentingContract.Listing[]",
          "name": "",
          "type": "tuple[]"
        }
      ],
      "stateMutability": "view",
      "type": "function"
    }
  ],
  "bytecode": {
    "object": "0x608060405234801561001057600080fd5b50611fe1806100206000396000f3fe608060405234801561001057600080fd5b50600436106100625760003560e01c806322e8ea34146100675780634f85310f1461007c578063a182ef99146100a5578063ed3b8f8f146100c6578063f1b2d6a3146100e6578063feaff024146100fb575b600080fd5b61007a61007536600461164b565b61010e565b005b61008f61008a366004611677565b610297565b60405161009c9190611953565b60405180910390f35b6100b86100b3366004611b08565b61075b565b60405190815260200161009c565b6100d96100d4366004611677565b61088d565b60405161009c9190611bf2565b6100ee610958565b60405161009c9190611c05565b61007a610109366004611c7b565b610e18565b6000548390811061013a5760405162461bcd60e51b815260040161013190611cae565b60405180910390fd5b83336001600160a01b03166000828154811061015857610158611cf1565b60009182526020909120600c90910201546001600160a01b0316036101c95760405162461bcd60e51b815260206004820152602160248201527f4f776e65722063616e6e6f742072656e7420686973206f776e206c697374696e6044820152606760f81b6064820152608401610131565b600085815481106101dc576101dc611cf1565b6000918252602080832060408051606080820183523382528185018b81528284018b8152600c97909702909401600b01805460018082018355918952978690209251600390980290920180546001600160a01b0319166001600160a01b03909816979097178755925190860155925160029094019390935581518881529081018790529081018590527fa46285acdadef536e2c4ae6dc5c4cc11577ef09112644016b5b648040a773ff8910160405180910390a15050505050565b61029f61155b565b600054829081106102c25760405162461bcd60e51b815260040161013190611cae565b600083815481106102d5576102d5611cf1565b60009182526020918290206040805161010081018252600c90930290910180546001600160a01b031683528151606081019092526001810180549394919391850192918290829061032590611d07565b80601f016020809104026020016040519081016040528092919081815260200182805461035190611d07565b801561039e5780601f106103735761010080835404028352916020019161039e565b820191906000526020600020905b81548152906001019060200180831161038157829003601f168201915b505050505081526020016001820180546103b790611d07565b80601f01602080910402602001604051908101604052809291908181526020018280546103e390611d07565b80156104305780601f1061040557610100808354040283529160200191610430565b820191906000526020600020905b81548152906001019060200180831161041357829003601f168201915b5050505050815260200160028201805461044990611d07565b80601f016020809104026020016040519081016040528092919081815260200182805461047590611d07565b80156104c25780601f10610497576101008083540402835291602001916104c2565b820191906000526020600020905b8154815290600101906020018083116104a557829003601f168201915b505050505081525050815260200160048201805480602002602001604051908101604052809291908181526020016000905b828210156105a057838290600052602060002001805461051390611d07565b80601f016020809104026020016040519081016040528092919081815260200182805461053f90611d07565b801561058c5780601f106105615761010080835404028352916020019161058c565b820191906000526020600020905b81548152906001019060200180831161056f57829003601f168201915b5050505050815260200190600101906104f4565b5050509082525060058201546001600160801b0316602080830191909152600683018054604080518285028101850182528281529401939283018282801561061157602002820191906000526020600020905b81546001600160a01b031681526001909101906020018083116105f3575b5050505050815260200160078201805480602002602001604051908101604052809291908181526020016000905b8282101561068f5760008481526020902060408051808201918290529160028581029091019182845b8154815260200190600101908083116106685750505050508152602001906001019061063f565b5050509082525060408051606081019182905260209092019190600884019060039082845b8154815260200190600101908083116106b45750505050508152602001600b8201805480602002602001604051908101604052809291908181526020016000905b8282101561074a576000848152602090819020604080516060810182526003860290920180546001600160a01b03168352600180820154848601526002909101549183019190915290835290920191016106f5565b505050508152505091505b50919050565b60008054600181018255818052600c027f290decd9548b62a8d60345a988386fc84ba6bc95484008f6362f93160ef3e563810180546001600160a01b031916331781558551909186917f290decd9548b62a8d60345a988386fc84ba6bc95484008f6362f93160ef3e5649091019081906107d59082611d8a565b50602082015160018201906107ea9082611d8a565b50604082015160028201906107ff9082611d8a565b5050506005810180546fffffffffffffffffffffffffffffffff19166001600160801b0385161790558451602086015160408088015190517f6cf1d3f89bb3037bf1471d9d33297efc3bc4eb5ed0cb39cc13a5066a6b0cbf619361086d93339391929091908a908a90611e4a565b60405180910390a160005461088490600190611f24565b95945050505050565b600054606090829081106108b35760405162461bcd60e51b815260040161013190611cae565b600083815481106108c6576108c6611cf1565b90600052602060002090600c0201600b01805480602002602001604051908101604052809291908181526020016000905b8282101561094c576000848152602090819020604080516060810182526003860290920180546001600160a01b03168352600180820154848601526002909101549183019190915290835290920191016108f7565b50505050915050919050565b60606000805480602002602001604051908101604052809291908181526020016000905b82821015610e0f5760008481526020908190206040805161010081018252600c860290920180546001600160a01b03168352815160608101909252600181018054939491939185019291829082906109d390611d07565b80601f01602080910402602001604051908101604052809291908181526020018280546109ff90611d07565b8015610a4c5780601f10610a2157610100808354040283529160200191610a4c565b820191906000526020600020905b815481529060010190602001808311610a2f57829003601f168201915b50505050508152602001600182018054610a6590611d07565b80601f0160208091040260200160405190810160405280929190818152602001828054610a9190611d07565b8015610ade5780601f10610ab357610100808354040283529160200191610ade565b820191906000526020600020905b815481529060010190602001808311610ac157829003601f168201915b50505050508152602001600282018054610af790611d07565b80601f0160208091040260200160405190810160405280929190818152602001828054610b2390611d07565b8015610b705780601f10610b4557610100808354040283529160200191610b70565b820191906000526020600020905b815481529060010190602001808311610b5357829003601f168201915b505050505081525050815260200160048201805480602002602001604051908101604052809291908181526020016000905b82821015610c4e578382906000526020600020018054610bc190611d07565b80601f0160208091040260200160405190810160405280929190818152602001828054610bed90611d07565b8015610c3a5780601f10610c0f57610100808354040283529160200191610c3a565b820191906000526020600020905b815481529060010190602001808311610c1d57829003601f168201915b505050505081526020019060010190610ba2565b5050509082525060058201546001600160801b03166020808301919091526006830180546040805182850281018501825282815294019392830182828015610cbf57602002820191906000526020600020905b81546001600160a01b03168152600190910190602001808311610ca1575b5050505050815260200160078201805480602002602001604051908101604052809291908181526020016000905b82821015610d3d5760008481526020902060408051808201918290529160028581029091019182845b815481526020019060010190808311610d1657505050505081526020019060010190610ced565b5050509082525060408051606081019182905260209092019190600884019060039082845b815481526020019060010190808311610d625750505050508152602001600b8201805480602002602001604051908101604052809291908181526020016000905b82821015610df8576000848152602090819020604080516060810182526003860290920180546001600160a01b0316835260018082015484860152600290910154918301919091529083529092019101610da3565b50505050815250508152602001906001019061097c565b50505050905090565b60005463ffffffff8316908110610e415760405162461bcd60e51b815260040161013190611cae565b8263ffffffff168263ffffffff166000808381548110610e6357610e63611cf1565b90600052602060002090600c0201600b018281548110610e8557610e85611cf1565b90600052602060002090600302016001015490506000808481548110610ead57610ead611cf1565b90600052602060002090600c0201600b018381548110610ecf57610ecf611cf1565b9060005260206000209060030201600201549050808210610f3d5760405162461bcd60e51b815260206004820152602260248201527f53746172742064617465206d757374206265206265666f726520656e64206461604482015261746560f01b6064820152608401610131565b6102da610f4a8383611f24565b1115610fa25760405162461bcd60e51b815260206004820152602160248201527f43616e6e6f742072656e7420666f72206d6f7265207468616e203220796561726044820152607360f81b6064820152608401610131565b815b8181101561107057610fb861010082611f53565b6001901b60008681548110610fcf57610fcf611cf1565b90600052602060002090600c020160080161010083610fee9190611f67565b60038110610ffe57610ffe611cf1565b0154161561105e5760405162461bcd60e51b815260206004820152602760248201527f4c697374696e6720697320616c72656164792072656e74656420666f722074686044820152666973206461746560c81b6064820152608401610131565b8061106881611f7b565b915050610fa4565b508663ffffffff16336001600160a01b03166000828154811061109557611095611cf1565b60009182526020909120600c90910201546001600160a01b03161461110a5760405162461bcd60e51b815260206004820152602560248201527f4f6e6c79206f776e65722063616e20617070726f766520616e206170706c696360448201526430ba34b7b760d91b6064820152608401610131565b6000808963ffffffff168154811061112457611124611cf1565b90600052602060002090600c0201600b018863ffffffff168154811061114c5761114c611cf1565b90600052602060002090600302016001015490506000808a63ffffffff168154811061117a5761117a611cf1565b90600052602060002090600c0201600b018963ffffffff16815481106111a2576111a2611cf1565b90600052602060002090600302016002015490506000808b63ffffffff16815481106111d0576111d0611cf1565b90600052602060002090600c0201600b018a63ffffffff16815481106111f8576111f8611cf1565b60009182526020909120600390910201546001600160a01b03169050825b82811161128f5761122961010082611f53565b6001901b60008d63ffffffff168154811061124657611246611cf1565b90600052602060002090600c0201600801610100836112659190611f67565b6003811061127557611275611cf1565b01805490911790558061128781611f7b565b915050611216565b5060008b63ffffffff16815481106112a9576112a9611cf1565b60009182526020808320600c9290920290910160060180546001810182559083529082200180546001600160a01b0319166001600160a01b038416179055805463ffffffff8d169081106112ff576112ff611cf1565b6000918252602080832060408051808201909152878152808301879052600c93909302016007018054600181018255908452922061134692600290810290910191906115da565b50604080516001600160a01b038316815263ffffffff8d166020820152908101849052606081018390527f7f487747d76fc9f1de203ffc2079e6d88287f24736e48a861a2a1cf3207f293e9060800160405180910390a160008b63ffffffff16815481106113b6576113b6611cf1565b90600052602060002090600c0201600b018a63ffffffff16815481106113de576113de611cf1565b60009182526020822060039091020180546001600160a01b031916815560018101829055600201819055805461143a919063ffffffff8e1690811061142557611425611cf1565b90600052602060002090600c02018484611447565b5050505050505050505050565b600b83015460005b8181101561155457600085600b01828154811061146e5761146e611cf1565b9060005260206000209060030201600101549050600086600b01838154811061149957611499611cf1565b906000526020600020906003020160020154905060008290505b81811161153e578087111580156114ca5750858111155b1561152c5787600b0184815481106114e4576114e4611cf1565b60009182526020822060039091020180546001600160a01b031916815560018101829055600201558361151681611f94565b945050848061152490611f94565b95505061153e565b8061153681611f7b565b9150506114b3565b505050808061154c90611f7b565b91505061144f565b5050505050565b60405180610100016040528060006001600160a01b0316815260200161159b60405180606001604052806060815260200160608152602001606081525090565b81526020016060815260200160006001600160801b0316815260200160608152602001606081526020016115cd611618565b8152602001606081525090565b8260028101928215611608579160200282015b828111156116085782518255916020019190600101906115ed565b50611614929150611636565b5090565b60405180606001604052806003906020820280368337509192915050565b5b808211156116145760008155600101611637565b60008060006060848603121561166057600080fd5b505081359360208301359350604090920135919050565b60006020828403121561168957600080fd5b5035919050565b6000815180845260005b818110156116b65760208185018101518683018201520161169a565b506000602082860101526020601f19601f83011685010191505092915050565b60008151606084526116eb6060850182611690565b9050602083015184820360208601526117048282611690565b915050604083015184820360408601526108848282611690565b600082825180855260208086019550808260051b84010181860160005b8481101561176957601f19868403018952611757838351611690565b9884019892509083019060010161173b565b5090979650505050505050565b600081518084526020808501945080840160005b838110156117af5781516001600160a01b03168752958201959082019060010161178a565b509495945050505050565b60008151808452602080850194508084016000805b8481101561180f57825188835b60028110156117f9578251825291860191908601906001016117dc565b50505060409790970196918301916001016117cf565b50959695505050505050565b8060005b600381101561183e57815184526020938401939091019060010161181f565b50505050565b600081518084526020808501945080840160005b838110156117af57815180516001600160a01b0316885283810151848901526040908101519088015260609096019590820190600101611858565b80516001600160a01b03168252600061014060208301518160208601526118bc828601826116d6565b915050604083015184820360408601526118d6828261171e565b91505060608301516118f360608601826001600160801b03169052565b506080830151848203608086015261190b8282611776565b91505060a083015184820360a086015261192582826117ba565b91505060c083015161193a60c086018261181b565b5060e08301518482036101208601526108848282611844565b6020815260006119666020830184611893565b9392505050565b634e487b7160e01b600052604160045260246000fd5b6040516060810167ffffffffffffffff811182821017156119a6576119a661196d565b60405290565b604051601f8201601f1916810167ffffffffffffffff811182821017156119d5576119d561196d565b604052919050565b600082601f8301126119ee57600080fd5b813567ffffffffffffffff811115611a0857611a0861196d565b611a1b601f8201601f19166020016119ac565b818152846020838601011115611a3057600080fd5b816020850160208301376000918101602001919091529392505050565b600082601f830112611a5e57600080fd5b8135602067ffffffffffffffff80831115611a7b57611a7b61196d565b8260051b611a8a8382016119ac565b9384528581018301938381019088861115611aa457600080fd5b84880192505b85831015611ae057823584811115611ac25760008081fd5b611ad08a87838c01016119dd565b8352509184019190840190611aaa565b98975050505050505050565b80356001600160801b0381168114611b0357600080fd5b919050565b600080600060608486031215611b1d57600080fd5b833567ffffffffffffffff80821115611b3557600080fd5b9085019060608288031215611b4957600080fd5b611b51611983565b823582811115611b6057600080fd5b611b6c898286016119dd565b825250602083013582811115611b8157600080fd5b611b8d898286016119dd565b602083015250604083013582811115611ba557600080fd5b611bb1898286016119dd565b60408301525094506020860135915080821115611bcd57600080fd5b50611bda86828701611a4d565b925050611be960408501611aec565b90509250925092565b6020815260006119666020830184611844565b6000602080830181845280855180835260408601915060408160051b870101925083870160005b82811015611c5a57603f19888603018452611c48858351611893565b94509285019290850190600101611c2c565b5092979650505050505050565b803563ffffffff81168114611b0357600080fd5b60008060408385031215611c8e57600080fd5b611c9783611c67565b9150611ca560208401611c67565b90509250929050565b60208082526023908201527f4c697374696e672077697468207468697320696420646f6573206e6f742065786040820152621a5cdd60ea1b606082015260800190565b634e487b7160e01b600052603260045260246000fd5b600181811c90821680611d1b57607f821691505b60208210810361075557634e487b7160e01b600052602260045260246000fd5b601f821115611d8557600081815260208120601f850160051c81016020861015611d625750805b601f850160051c820191505b81811015611d8157828155600101611d6e565b5050505b505050565b815167ffffffffffffffff811115611da457611da461196d565b611db881611db28454611d07565b84611d3b565b602080601f831160018114611ded5760008415611dd55750858301515b600019600386901b1c1916600185901b178555611d81565b600085815260208120601f198616915b82811015611e1c57888601518255948401946001909101908401611dfd565b5085821015611e3a5787850151600019600388901b60f8161c191681555b5050505050600190811b01905550565b6001600160a01b038716815260c06020808301829052600091611e6f90840189611690565b8381036040850152611e818189611690565b90508381036060850152611e958188611690565b905083810360808501528086518083528383019150838160051b84010184890160005b83811015611ee657601f19868403018552611ed4838351611690565b94870194925090860190600101611eb8565b50506001600160801b03881660a08801529450611f039350505050565b979650505050505050565b634e487b7160e01b600052601160045260246000fd5b81810381811115611f3757611f37611f0e565b92915050565b634e487b7160e01b600052601260045260246000fd5b600082611f6257611f62611f3d565b500690565b600082611f7657611f76611f3d565b500490565b600060018201611f8d57611f8d611f0e565b5060010190565b600081611fa357611fa3611f0e565b50600019019056fea264697066735822122041106b637a7432aad1db28d283c0010de6a11e53260e134714539ddead915b2564736f6c63430008110033",
    "linkReferences": {}
  },
  "methodIdentifiers": {
    "addListing((string,string,string),string[],uint128)": "a182ef99",
    "applyForListing(uint256,uint256,uint256)": "22e8ea34",
    "approveApplication(uint32,uint32)": "feaff024",
    "getApplicationsForListing(uint256)": "ed3b8f8f",
    "getListingById(uint256)": "4f85310f",
    "getListings()": "f1b2d6a3"
  },
  "id": 0
}