{
  "abi": [
    {
      "anonymous": false,
      "inputs": [
        {
          "indexed": false,
          "internalType": "address",
          "name": "renter",
          "type": "address"
        },
        {
          "indexed": false,
          "internalType": "uint32",
          "name": "id",
          "type": "uint32"
        },
        {
          "indexed": false,
          "internalType": "uint256",
          "name": "start",
          "type": "uint256"
        },
        {
          "indexed": false,
          "internalType": "uint256",
          "name": "end",
          "type": "uint256"
        }
      ],
      "name": "LogApplicationApproved",
      "type": "event"
    },
    {
      "anonymous": false,
      "inputs": [
        {
          "indexed": false,
          "internalType": "uint256",
          "name": "listingId",
          "type": "uint256"
        },
        {
          "indexed": false,
          "internalType": "uint256",
          "name": "start",
          "type": "uint256"
        },
        {
          "indexed": false,
          "internalType": "uint256",
          "name": "end",
          "type": "uint256"
        }
      ],
      "name": "LogApplicationSent",
      "type": "event"
    },
    {
      "anonymous": false,
      "inputs": [
        {
          "indexed": false,
          "internalType": "address",
          "name": "owner",
          "type": "address"
        },
        {
          "indexed": false,
          "internalType": "string",
          "name": "propertyName",
          "type": "string"
        },
        {
          "indexed": false,
          "internalType": "string",
          "name": "propertyDescription",
          "type": "string"
        },
        {
          "indexed": false,
          "internalType": "string",
          "name": "propertyAddress",
          "type": "string"
        },
        {
          "indexed": false,
          "internalType": "string[]",
          "name": "images",
          "type": "string[]"
        },
        {
          "indexed": false,
          "internalType": "uint128",
          "name": "price",
          "type": "uint128"
        }
      ],
      "name": "LogListingAdded",
      "type": "event"
    },
    {
      "inputs": [
        {
          "components": [
            {
              "internalType": "string",
              "name": "name",
              "type": "string"
            },
            {
              "internalType": "string",
              "name": "description",
              "type": "string"
            },
            {
              "internalType": "string",
              "name": "location",
              "type": "string"
            }
          ],
          "internalType": "struct RentingContract.PropertyInfo",
          "name": "_propertyInfo",
          "type": "tuple"
        },
        {
          "internalType": "string[]",
          "name": "_images",
          "type": "string[]"
        },
        {
          "internalType": "uint128",
          "name": "_price",
          "type": "uint128"
        }
      ],
      "name": "addListing",
      "outputs": [
        {
          "internalType": "uint256",
          "name": "id",
          "type": "uint256"
        }
      ],
      "stateMutability": "nonpayable",
      "type": "function"
    },
    {
      "inputs": [
        {
          "internalType": "uint256",
          "name": "_id",
          "type": "uint256"
        },
        {
          "internalType": "uint256",
          "name": "_start",
          "type": "uint256"
        },
        {
          "internalType": "uint256",
          "name": "_end",
          "type": "uint256"
        }
      ],
      "name": "applyForListing",
      "outputs": [],
      "stateMutability": "nonpayable",
      "type": "function"
    },
    {
      "inputs": [
        {
          "internalType": "uint32",
          "name": "_id",
          "type": "uint32"
        },
        {
          "internalType": "uint32",
          "name": "_applicationId",
          "type": "uint32"
        }
      ],
      "name": "approveApplication",
      "outputs": [],
      "stateMutability": "nonpayable",
      "type": "function"
    },
    {
      "inputs": [
        {
          "internalType": "uint256",
          "name": "_id",
          "type": "uint256"
        }
      ],
      "name": "getApplicationsForListing",
      "outputs": [
        {
          "components": [
            {
              "internalType": "address",
              "name": "applicant",
              "type": "address"
            },
            {
              "internalType": "uint256",
              "name": "start",
              "type": "uint256"
            },
            {
              "internalType": "uint256",
              "name": "end",
              "type": "uint256"
            }
          ],
          "internalType": "struct RentingContract.Application[]",
          "name": "",
          "type": "tuple[]"
        }
      ],
      "stateMutability": "view",
      "type": "function"
    },
    {
      "inputs": [
        {
          "internalType": "uint256",
          "name": "_id",
          "type": "uint256"
        }
      ],
      "name": "getListingById",
      "outputs": [
        {
          "components": [
            {
              "internalType": "address",
              "name": "owner",
              "type": "address"
            },
            {
              "components": [
                {
                  "internalType": "string",
                  "name": "name",
                  "type": "string"
                },
                {
                  "internalType": "string",
                  "name": "description",
                  "type": "string"
                },
                {
                  "internalType": "string",
                  "name": "location",
                  "type": "string"
                }
              ],
              "internalType": "struct RentingContract.PropertyInfo",
              "name": "propertyInfo",
              "type": "tuple"
            },
            {
              "internalType": "string[]",
              "name": "images",
              "type": "string[]"
            },
            {
              "internalType": "uint128",
              "name": "price",
              "type": "uint128"
            },
            {
              "internalType": "address[]",
              "name": "renters",
              "type": "address[]"
            },
            {
              "internalType": "uint256[2][]",
              "name": "rentDates",
              "type": "uint256[2][]"
            },
            {
              "internalType": "uint256[3]",
              "name": "rentedDates",
              "type": "uint256[3]"
            },
            {
              "components": [
                {
                  "internalType": "address",
                  "name": "applicant",
                  "type": "address"
                },
                {
                  "internalType": "uint256",
                  "name": "start",
                  "type": "uint256"
                },
                {
                  "internalType": "uint256",
                  "name": "end",
                  "type": "uint256"
                }
              ],
              "internalType": "struct RentingContract.Application[]",
              "name": "pendingApplications",
              "type": "tuple[]"
            }
          ],
          "internalType": "struct RentingContract.Listing",
          "name": "",
          "type": "tuple"
        }
      ],
      "stateMutability": "view",
      "type": "function"
    },
    {
      "inputs": [],
      "name": "getListings",
      "outputs": [
        {
          "components": [
            {
              "internalType": "address",
              "name": "owner",
              "type": "address"
            },
            {
              "components": [
                {
                  "internalType": "string",
                  "name": "name",
                  "type": "string"
                },
                {
                  "internalType": "string",
                  "name": "description",
                  "type": "string"
                },
                {
                  "internalType": "string",
                  "name": "location",
                  "type": "string"
                }
              ],
              "internalType": "struct RentingContract.PropertyInfo",
              "name": "propertyInfo",
              "type": "tuple"
            },
            {
              "internalType": "string[]",
              "name": "images",
              "type": "string[]"
            },
            {
              "internalType": "uint128",
              "name": "price",
              "type": "uint128"
            },
            {
              "internalType": "address[]",
              "name": "renters",
              "type": "address[]"
            },
            {
              "internalType": "uint256[2][]",
              "name": "rentDates",
              "type": "uint256[2][]"
            },
            {
              "internalType": "uint256[3]",
              "name": "rentedDates",
              "type": "uint256[3]"
            },
            {
              "components": [
                {
                  "internalType": "address",
                  "name": "applicant",
                  "type": "address"
                },
                {
                  "internalType": "uint256",
                  "name": "start",
                  "type": "uint256"
                },
                {
                  "internalType": "uint256",
                  "name": "end",
                  "type": "uint256"
                }
              ],
              "internalType": "struct RentingContract.Application[]",
              "name": "pendingApplications",
              "type": "tuple[]"
            }
          ],
          "internalType": "struct RentingContract.Listing[]",
          "name": "",
          "type": "tuple[]"
        }
      ],
      "stateMutability": "view",
      "type": "function"
    }
  ],
  "bytecode": {
    "object": "0x608060405234801561001057600080fd5b5061206a806100206000396000f3fe608060405234801561001057600080fd5b50600436106100625760003560e01c806322e8ea34146100675780634f85310f1461007c578063a182ef99146100a5578063ed3b8f8f146100c6578063f1b2d6a3146100e6578063feaff024146100fb575b600080fd5b61007a6100753660046116c5565b61010e565b005b61008f61008a3660046116f1565b610207565b60405161009c91906119ca565b60405180910390f35b6100b86100b3366004611b7f565b6106cb565b60405190815260200161009c565b6100d96100d43660046116f1565b610813565b60405161009c9190611c69565b6100ee6108de565b60405161009c9190611c7c565b61007a610109366004611cf2565b610d9e565b6000548390811061013a5760405162461bcd60e51b815260040161013190611d25565b60405180910390fd5b6000848154811061014d5761014d611d68565b6000918252602080832060408051606080820183523382528185018a81528284018a8152600c97909702909401600b01805460018082018355918952978690209251600390980290920180546001600160a01b0319166001600160a01b03909816979097178755925190860155925160029094019390935581518781529081018690529081018490527fa46285acdadef536e2c4ae6dc5c4cc11577ef09112644016b5b648040a773ff8910160405180910390a150505050565b61020f611529565b600054829081106102325760405162461bcd60e51b815260040161013190611d25565b6000838154811061024557610245611d68565b60009182526020918290206040805161010081018252600c90930290910180546001600160a01b031683528151606081019092526001810180549394919391850192918290829061029590611d7e565b80601f01602080910402602001604051908101604052809291908181526020018280546102c190611d7e565b801561030e5780601f106102e35761010080835404028352916020019161030e565b820191906000526020600020905b8154815290600101906020018083116102f157829003601f168201915b5050505050815260200160018201805461032790611d7e565b80601f016020809104026020016040519081016040528092919081815260200182805461035390611d7e565b80156103a05780601f10610375576101008083540402835291602001916103a0565b820191906000526020600020905b81548152906001019060200180831161038357829003601f168201915b505050505081526020016002820180546103b990611d7e565b80601f01602080910402602001604051908101604052809291908181526020018280546103e590611d7e565b80156104325780601f1061040757610100808354040283529160200191610432565b820191906000526020600020905b81548152906001019060200180831161041557829003601f168201915b505050505081525050815260200160048201805480602002602001604051908101604052809291908181526020016000905b8282101561051057838290600052602060002001805461048390611d7e565b80601f01602080910402602001604051908101604052809291908181526020018280546104af90611d7e565b80156104fc5780601f106104d1576101008083540402835291602001916104fc565b820191906000526020600020905b8154815290600101906020018083116104df57829003601f168201915b505050505081526020019060010190610464565b5050509082525060058201546001600160801b0316602080830191909152600683018054604080518285028101850182528281529401939283018282801561058157602002820191906000526020600020905b81546001600160a01b03168152600190910190602001808311610563575b5050505050815260200160078201805480602002602001604051908101604052809291908181526020016000905b828210156105ff5760008481526020902060408051808201918290529160028581029091019182845b8154815260200190600101908083116105d8575050505050815260200190600101906105af565b5050509082525060408051606081019182905260209092019190600884019060039082845b8154815260200190600101908083116106245750505050508152602001600b8201805480602002602001604051908101604052809291908181526020016000905b828210156106ba576000848152602090819020604080516060810182526003860290920180546001600160a01b0316835260018082015484860152600290910154918301919091529083529092019101610665565b505050508152505091505b50919050565b60008054600181018255818052600c027f290decd9548b62a8d60345a988386fc84ba6bc95484008f6362f93160ef3e563810180546001600160a01b031916331781558551909186917f290decd9548b62a8d60345a988386fc84ba6bc95484008f6362f93160ef3e5649091019081906107459082611e01565b506020820151600182019061075a9082611e01565b506040820151600282019061076f9082611e01565b5050506005810180546fffffffffffffffffffffffffffffffff19166001600160801b03851617905583516107ad90600483019060208701906115a8565b507f6cf1d3f89bb3037bf1471d9d33297efc3bc4eb5ed0cb39cc13a5066a6b0cbf613386600001518760200151886040015188886040516107f396959493929190611ec1565b60405180910390a160005461080a90600190611f9b565b95945050505050565b600054606090829081106108395760405162461bcd60e51b815260040161013190611d25565b6000838154811061084c5761084c611d68565b90600052602060002090600c0201600b01805480602002602001604051908101604052809291908181526020016000905b828210156108d2576000848152602090819020604080516060810182526003860290920180546001600160a01b031683526001808201548486015260029091015491830191909152908352909201910161087d565b50505050915050919050565b60606000805480602002602001604051908101604052809291908181526020016000905b82821015610d955760008481526020908190206040805161010081018252600c860290920180546001600160a01b031683528151606081019092526001810180549394919391850192918290829061095990611d7e565b80601f016020809104026020016040519081016040528092919081815260200182805461098590611d7e565b80156109d25780601f106109a7576101008083540402835291602001916109d2565b820191906000526020600020905b8154815290600101906020018083116109b557829003601f168201915b505050505081526020016001820180546109eb90611d7e565b80601f0160208091040260200160405190810160405280929190818152602001828054610a1790611d7e565b8015610a645780601f10610a3957610100808354040283529160200191610a64565b820191906000526020600020905b815481529060010190602001808311610a4757829003601f168201915b50505050508152602001600282018054610a7d90611d7e565b80601f0160208091040260200160405190810160405280929190818152602001828054610aa990611d7e565b8015610af65780601f10610acb57610100808354040283529160200191610af6565b820191906000526020600020905b815481529060010190602001808311610ad957829003601f168201915b505050505081525050815260200160048201805480602002602001604051908101604052809291908181526020016000905b82821015610bd4578382906000526020600020018054610b4790611d7e565b80601f0160208091040260200160405190810160405280929190818152602001828054610b7390611d7e565b8015610bc05780601f10610b9557610100808354040283529160200191610bc0565b820191906000526020600020905b815481529060010190602001808311610ba357829003601f168201915b505050505081526020019060010190610b28565b5050509082525060058201546001600160801b03166020808301919091526006830180546040805182850281018501825282815294019392830182828015610c4557602002820191906000526020600020905b81546001600160a01b03168152600190910190602001808311610c27575b5050505050815260200160078201805480602002602001604051908101604052809291908181526020016000905b82821015610cc35760008481526020902060408051808201918290529160028581029091019182845b815481526020019060010190808311610c9c57505050505081526020019060010190610c73565b5050509082525060408051606081019182905260209092019190600884019060039082845b815481526020019060010190808311610ce85750505050508152602001600b8201805480602002602001604051908101604052809291908181526020016000905b82821015610d7e576000848152602090819020604080516060810182526003860290920180546001600160a01b0316835260018082015484860152600290910154918301919091529083529092019101610d29565b505050508152505081526020019060010190610902565b50505050905090565b60005463ffffffff8316908110610dc75760405162461bcd60e51b815260040161013190611d25565b8263ffffffff168263ffffffff166000808381548110610de957610de9611d68565b90600052602060002090600c0201600b018281548110610e0b57610e0b611d68565b90600052602060002090600302016001015490506000808481548110610e3357610e33611d68565b90600052602060002090600c0201600b018381548110610e5557610e55611d68565b9060005260206000209060030201600201549050808210610ec35760405162461bcd60e51b815260206004820152602260248201527f53746172742064617465206d757374206265206265666f726520656e64206461604482015261746560f01b6064820152608401610131565b6102da610ed08383611f9b565b1115610f285760405162461bcd60e51b815260206004820152602160248201527f43616e6e6f742072656e7420666f72206d6f7265207468616e203220796561726044820152607360f81b6064820152608401610131565b815b81811015610ff657610f3e61010082611fca565b6001901b60008681548110610f5557610f55611d68565b90600052602060002090600c020160080161010083610f749190611fde565b60038110610f8457610f84611d68565b01541615610fe45760405162461bcd60e51b815260206004820152602760248201527f4c697374696e6720697320616c72656164792072656e74656420666f722074686044820152666973206461746560c81b6064820152608401610131565b80610fee81611ff2565b915050610f2a565b508663ffffffff16336001600160a01b03166000828154811061101b5761101b611d68565b60009182526020909120600c90910201546001600160a01b0316146110905760405162461bcd60e51b815260206004820152602560248201527f4f6e6c79206f776e65722063616e20617070726f766520616e206170706c696360448201526430ba34b7b760d91b6064820152608401610131565b6000808963ffffffff16815481106110aa576110aa611d68565b90600052602060002090600c0201600b018863ffffffff16815481106110d2576110d2611d68565b90600052602060002090600302016001015490506000808a63ffffffff168154811061110057611100611d68565b90600052602060002090600c0201600b018963ffffffff168154811061112857611128611d68565b90600052602060002090600302016002015490506000808b63ffffffff168154811061115657611156611d68565b90600052602060002090600c0201600b018a63ffffffff168154811061117e5761117e611d68565b60009182526020909120600390910201546001600160a01b03169050825b828111611215576111af61010082611fca565b6001901b60008d63ffffffff16815481106111cc576111cc611d68565b90600052602060002090600c0201600801610100836111eb9190611fde565b600381106111fb576111fb611d68565b01805490911790558061120d81611ff2565b91505061119c565b5060008b63ffffffff168154811061122f5761122f611d68565b60009182526020808320600c9290920290910160060180546001810182559083529082200180546001600160a01b0319166001600160a01b038416179055805463ffffffff8d1690811061128557611285611d68565b6000918252602080832060408051808201909152878152808301879052600c9390930201600701805460018101825590845292206112cc92600290810290910191906115fe565b50604080516001600160a01b038316815263ffffffff8d166020820152908101849052606081018390527f7f487747d76fc9f1de203ffc2079e6d88287f24736e48a861a2a1cf3207f293e9060800160405180910390a16113398a63ffffffff168c63ffffffff16611346565b5050505050505050505050565b6000818154811061135957611359611d68565b90600052602060002090600c0201600b018054905082106113ac5760405162461bcd60e51b815260206004820152600d60248201526c4f7574206f6620626f756e647360981b6044820152606401610131565b815b6001600083815481106113c3576113c3611d68565b90600052602060002090600c0201600b01805490506113e29190611f9b565b8110156114c157600082815481106113fc576113fc611d68565b90600052602060002090600c0201600b0181600161141a919061200b565b8154811061142a5761142a611d68565b90600052602060002090600302016000838154811061144b5761144b611d68565b90600052602060002090600c0201600b01828154811061146d5761146d611d68565b60009182526020909120825460039092020180546001600160a01b0319166001600160a01b0390921691909117815560018083015490820155600291820154910155806114b981611ff2565b9150506113ae565b50600081815481106114d5576114d5611d68565b90600052602060002090600c0201600b018054806114f5576114f561201e565b60008281526020812060036000199093019283020180546001600160a01b0319168155600181018290556002015590555050565b60405180610100016040528060006001600160a01b0316815260200161156960405180606001604052806060815260200160608152602001606081525090565b81526020016060815260200160006001600160801b03168152602001606081526020016060815260200161159b611638565b8152602001606081525090565b8280548282559060005260206000209081019282156115ee579160200282015b828111156115ee57825182906115de9082611e01565b50916020019190600101906115c8565b506115fa929150611656565b5090565b826002810192821561162c579160200282015b8281111561162c578251825591602001919060010190611611565b506115fa929150611673565b60405180606001604052806003906020820280368337509192915050565b808211156115fa57600061166a8282611688565b50600101611656565b5b808211156115fa5760008155600101611674565b50805461169490611d7e565b6000825580601f106116a4575050565b601f0160209004906000526020600020908101906116c29190611673565b50565b6000806000606084860312156116da57600080fd5b505081359360208301359350604090920135919050565b60006020828403121561170357600080fd5b5035919050565b6000815180845260005b8181101561173057602081850181015186830182015201611714565b506000602082860101526020601f19601f83011685010191505092915050565b6000815160608452611765606085018261170a565b90506020830151848203602086015261177e828261170a565b9150506040830151848203604086015261080a828261170a565b600081518084526020808501808196508360051b8101915082860160005b858110156117e05782840389526117ce84835161170a565b988501989350908401906001016117b6565b5091979650505050505050565b600081518084526020808501945080840160005b838110156118265781516001600160a01b031687529582019590820190600101611801565b509495945050505050565b60008151808452602080850194508084016000805b8481101561188657825188835b600281101561187057825182529186019190860190600101611853565b5050506040979097019691830191600101611846565b50959695505050505050565b8060005b60038110156118b5578151845260209384019390910190600101611896565b50505050565b600081518084526020808501945080840160005b8381101561182657815180516001600160a01b03168852838101518489015260409081015190880152606090960195908201906001016118cf565b80516001600160a01b031682526000610140602083015181602086015261193382860182611750565b9150506040830151848203604086015261194d8282611798565b915050606083015161196a60608601826001600160801b03169052565b506080830151848203608086015261198282826117ed565b91505060a083015184820360a086015261199c8282611831565b91505060c08301516119b160c0860182611892565b5060e083015184820361012086015261080a82826118bb565b6020815260006119dd602083018461190a565b9392505050565b634e487b7160e01b600052604160045260246000fd5b6040516060810167ffffffffffffffff81118282101715611a1d57611a1d6119e4565b60405290565b604051601f8201601f1916810167ffffffffffffffff81118282101715611a4c57611a4c6119e4565b604052919050565b600082601f830112611a6557600080fd5b813567ffffffffffffffff811115611a7f57611a7f6119e4565b611a92601f8201601f1916602001611a23565b818152846020838601011115611aa757600080fd5b816020850160208301376000918101602001919091529392505050565b600082601f830112611ad557600080fd5b8135602067ffffffffffffffff80831115611af257611af26119e4565b8260051b611b01838201611a23565b9384528581018301938381019088861115611b1b57600080fd5b84880192505b85831015611b5757823584811115611b395760008081fd5b611b478a87838c0101611a54565b8352509184019190840190611b21565b98975050505050505050565b80356001600160801b0381168114611b7a57600080fd5b919050565b600080600060608486031215611b9457600080fd5b833567ffffffffffffffff80821115611bac57600080fd5b9085019060608288031215611bc057600080fd5b611bc86119fa565b823582811115611bd757600080fd5b611be389828601611a54565b825250602083013582811115611bf857600080fd5b611c0489828601611a54565b602083015250604083013582811115611c1c57600080fd5b611c2889828601611a54565b60408301525094506020860135915080821115611c4457600080fd5b50611c5186828701611ac4565b925050611c6060408501611b63565b90509250925092565b6020815260006119dd60208301846118bb565b6000602080830181845280855180835260408601915060408160051b870101925083870160005b82811015611cd157603f19888603018452611cbf85835161190a565b94509285019290850190600101611ca3565b5092979650505050505050565b803563ffffffff81168114611b7a57600080fd5b60008060408385031215611d0557600080fd5b611d0e83611cde565b9150611d1c60208401611cde565b90509250929050565b60208082526023908201527f4c697374696e672077697468207468697320696420646f6573206e6f742065786040820152621a5cdd60ea1b606082015260800190565b634e487b7160e01b600052603260045260246000fd5b600181811c90821680611d9257607f821691505b6020821081036106c557634e487b7160e01b600052602260045260246000fd5b601f821115611dfc57600081815260208120601f850160051c81016020861015611dd95750805b601f850160051c820191505b81811015611df857828155600101611de5565b5050505b505050565b815167ffffffffffffffff811115611e1b57611e1b6119e4565b611e2f81611e298454611d7e565b84611db2565b602080601f831160018114611e645760008415611e4c5750858301515b600019600386901b1c1916600185901b178555611df8565b600085815260208120601f198616915b82811015611e9357888601518255948401946001909101908401611e74565b5085821015611eb15787850151600019600388901b60f8161c191681555b5050505050600190811b01905550565b6001600160a01b038716815260c06020808301829052600091611ee69084018961170a565b8381036040850152611ef8818961170a565b90508381036060850152611f0c818861170a565b905083810360808501528086518083528383019150838160051b84010184890160005b83811015611f5d57601f19868403018552611f4b83835161170a565b94870194925090860190600101611f2f565b50506001600160801b03881660a08801529450611f7a9350505050565b979650505050505050565b634e487b7160e01b600052601160045260246000fd5b81810381811115611fae57611fae611f85565b92915050565b634e487b7160e01b600052601260045260246000fd5b600082611fd957611fd9611fb4565b500690565b600082611fed57611fed611fb4565b500490565b60006001820161200457612004611f85565b5060010190565b80820180821115611fae57611fae611f85565b634e487b7160e01b600052603160045260246000fdfea26469706673582212206e12cc4be49ef3564938aa64f5ae0ceabbfd89cf53d7a6b3fbcf7dbea2eb441f64736f6c63430008110033",
    "linkReferences": {}
  },
  "methodIdentifiers": {
    "addListing((string,string,string),string[],uint128)": "a182ef99",
    "applyForListing(uint256,uint256,uint256)": "22e8ea34",
    "approveApplication(uint32,uint32)": "feaff024",
    "getApplicationsForListing(uint256)": "ed3b8f8f",
    "getListingById(uint256)": "4f85310f",
    "getListings()": "f1b2d6a3"
  },
  "id": 0
}